{
  "_format": "hh-sol-artifact-1",
  "contractName": "RRHICO",
  "sourceName": "contracts/ICO.sol",
  "abi": [
    {
      "inputs": [
        {
          "internalType": "address payable",
          "name": "_icoWallet",
          "type": "address"
        },
        {
          "internalType": "address",
          "name": "_token",
          "type": "address"
        }
      ],
      "stateMutability": "nonpayable",
      "type": "constructor"
    },
    {
      "anonymous": false,
      "inputs": [
        {
          "indexed": true,
          "internalType": "address",
          "name": "from",
          "type": "address"
        },
        {
          "indexed": true,
          "internalType": "address",
          "name": "to",
          "type": "address"
        },
        {
          "indexed": false,
          "internalType": "uint256",
          "name": "value",
          "type": "uint256"
        },
        {
          "indexed": false,
          "internalType": "uint256",
          "name": "tokens",
          "type": "uint256"
        }
      ],
      "name": "Invest",
      "type": "event"
    },
    {
      "anonymous": false,
      "inputs": [
        {
          "indexed": false,
          "internalType": "address",
          "name": "to",
          "type": "address"
        },
        {
          "indexed": false,
          "internalType": "uint256",
          "name": "amount",
          "type": "uint256"
        },
        {
          "indexed": false,
          "internalType": "uint256",
          "name": "time",
          "type": "uint256"
        }
      ],
      "name": "TokenBurn",
      "type": "event"
    },
    {
      "anonymous": false,
      "inputs": [
        {
          "indexed": true,
          "internalType": "address",
          "name": "from",
          "type": "address"
        },
        {
          "indexed": true,
          "internalType": "address",
          "name": "to",
          "type": "address"
        },
        {
          "indexed": false,
          "internalType": "uint256",
          "name": "value",
          "type": "uint256"
        },
        {
          "indexed": false,
          "internalType": "uint256",
          "name": "tokens",
          "type": "uint256"
        }
      ],
      "name": "Withdraw",
      "type": "event"
    },
    {
      "stateMutability": "payable",
      "type": "fallback"
    },
    {
      "inputs": [],
      "name": "ICOState",
      "outputs": [
        {
          "internalType": "enum RRHICO.State",
          "name": "",
          "type": "uint8"
        }
      ],
      "stateMutability": "view",
      "type": "function"
    },
    {
      "inputs": [],
      "name": "ICOWallet",
      "outputs": [
        {
          "internalType": "address payable",
          "name": "",
          "type": "address"
        }
      ],
      "stateMutability": "view",
      "type": "function"
    },
    {
      "inputs": [],
      "name": "admin",
      "outputs": [
        {
          "internalType": "address",
          "name": "",
          "type": "address"
        }
      ],
      "stateMutability": "view",
      "type": "function"
    },
    {
      "inputs": [],
      "name": "burn",
      "outputs": [
        {
          "internalType": "bool",
          "name": "",
          "type": "bool"
        }
      ],
      "stateMutability": "nonpayable",
      "type": "function"
    },
    {
      "inputs": [
        {
          "internalType": "address",
          "name": "_newAdmin",
          "type": "address"
        }
      ],
      "name": "changeAdmin",
      "outputs": [],
      "stateMutability": "nonpayable",
      "type": "function"
    },
    {
      "inputs": [
        {
          "internalType": "address payable",
          "name": "_newICOWallet",
          "type": "address"
        }
      ],
      "name": "changeICOWallet",
      "outputs": [],
      "stateMutability": "nonpayable",
      "type": "function"
    },
    {
      "inputs": [],
      "name": "endIco",
      "outputs": [],
      "stateMutability": "nonpayable",
      "type": "function"
    },
    {
      "inputs": [],
      "name": "getICOState",
      "outputs": [
        {
          "internalType": "string",
          "name": "",
          "type": "string"
        }
      ],
      "stateMutability": "view",
      "type": "function"
    },
    {
      "inputs": [],
      "name": "getICOTokenBalance",
      "outputs": [
        {
          "internalType": "uint256",
          "name": "",
          "type": "uint256"
        }
      ],
      "stateMutability": "view",
      "type": "function"
    },
    {
      "inputs": [],
      "name": "haltICO",
      "outputs": [],
      "stateMutability": "nonpayable",
      "type": "function"
    },
    {
      "inputs": [],
      "name": "hardCap",
      "outputs": [
        {
          "internalType": "uint256",
          "name": "",
          "type": "uint256"
        }
      ],
      "stateMutability": "view",
      "type": "function"
    },
    {
      "inputs": [],
      "name": "icoEndTime",
      "outputs": [
        {
          "internalType": "uint256",
          "name": "",
          "type": "uint256"
        }
      ],
      "stateMutability": "view",
      "type": "function"
    },
    {
      "inputs": [],
      "name": "icoStartTime",
      "outputs": [
        {
          "internalType": "uint256",
          "name": "",
          "type": "uint256"
        }
      ],
      "stateMutability": "view",
      "type": "function"
    },
    {
      "inputs": [],
      "name": "invest",
      "outputs": [
        {
          "internalType": "bool",
          "name": "",
          "type": "bool"
        }
      ],
      "stateMutability": "payable",
      "type": "function"
    },
    {
      "inputs": [
        {
          "internalType": "address",
          "name": "",
          "type": "address"
        }
      ],
      "name": "investedAmountOf",
      "outputs": [
        {
          "internalType": "uint256",
          "name": "",
          "type": "uint256"
        }
      ],
      "stateMutability": "view",
      "type": "function"
    },
    {
      "inputs": [
        {
          "internalType": "address",
          "name": "_investor",
          "type": "address"
        }
      ],
      "name": "investorBalanceOf",
      "outputs": [
        {
          "internalType": "uint256",
          "name": "",
          "type": "uint256"
        }
      ],
      "stateMutability": "view",
      "type": "function"
    },
    {
      "inputs": [],
      "name": "maxInvestment",
      "outputs": [
        {
          "internalType": "uint256",
          "name": "",
          "type": "uint256"
        }
      ],
      "stateMutability": "view",
      "type": "function"
    },
    {
      "inputs": [],
      "name": "minInvestment",
      "outputs": [
        {
          "internalType": "uint256",
          "name": "",
          "type": "uint256"
        }
      ],
      "stateMutability": "view",
      "type": "function"
    },
    {
      "inputs": [],
      "name": "raisedAmount",
      "outputs": [
        {
          "internalType": "uint256",
          "name": "",
          "type": "uint256"
        }
      ],
      "stateMutability": "view",
      "type": "function"
    },
    {
      "inputs": [],
      "name": "resumeICO",
      "outputs": [],
      "stateMutability": "nonpayable",
      "type": "function"
    },
    {
      "inputs": [],
      "name": "softcap",
      "outputs": [
        {
          "internalType": "uint256",
          "name": "",
          "type": "uint256"
        }
      ],
      "stateMutability": "view",
      "type": "function"
    },
    {
      "inputs": [],
      "name": "startICO",
      "outputs": [],
      "stateMutability": "nonpayable",
      "type": "function"
    },
    {
      "inputs": [],
      "name": "token",
      "outputs": [
        {
          "internalType": "contract RRH",
          "name": "",
          "type": "address"
        }
      ],
      "stateMutability": "view",
      "type": "function"
    },
    {
      "inputs": [],
      "name": "tokenPrice",
      "outputs": [
        {
          "internalType": "uint256",
          "name": "",
          "type": "uint256"
        }
      ],
      "stateMutability": "view",
      "type": "function"
    },
    {
      "inputs": [],
      "name": "withdraw",
      "outputs": [
        {
          "internalType": "bool",
          "name": "",
          "type": "bool"
        }
      ],
      "stateMutability": "payable",
      "type": "function"
    },
    {
      "stateMutability": "payable",
      "type": "receive"
    }
  ],
  "bytecode": "0x608060405266038d7ea4c68000600355671bc16d674ec8000060045567016345785d8a0000600555662386f26fc100006007556706f05b59d3b200006008553480156200004b57600080fd5b5060405162002bdc38038062002bdc8339818101604052810190620000719190620001ea565b336000806101000a81548173ffffffffffffffffffffffffffffffffffffffff021916908373ffffffffffffffffffffffffffffffffffffffff16021790555081600160006101000a81548173ffffffffffffffffffffffffffffffffffffffff021916908373ffffffffffffffffffffffffffffffffffffffff16021790555080600260006101000a81548173ffffffffffffffffffffffffffffffffffffffff021916908373ffffffffffffffffffffffffffffffffffffffff160217905550505062000231565b600080fd5b600073ffffffffffffffffffffffffffffffffffffffff82169050919050565b60006200016d8262000140565b9050919050565b6200017f8162000160565b81146200018b57600080fd5b50565b6000815190506200019f8162000174565b92915050565b6000620001b28262000140565b9050919050565b620001c481620001a5565b8114620001d057600080fd5b50565b600081519050620001e481620001b9565b92915050565b600080604083850312156200020457620002036200013b565b5b600062000214858286016200018e565b92505060206200022785828601620001d3565b9150509250929050565b61299b80620002416000396000f3fe6080604052600436106101685760003560e01c80638ac2c680116100d1578063c59ee1dc1161008a578063f851a44011610064578063f851a440146104be578063f89be593146104e9578063fb86a40414610514578063fc0c546a1461053f57610177565b8063c59ee1dc1461045e578063e657807b14610489578063e8b5e51f146104a057610177565b80638ac2c680146103725780638f2839701461039d5780639cbd7da5146103c6578063a7c3d71b146103dd578063ae764df314610408578063aeecdc2c1461043357610177565b806344df8e701161012357806344df8e70146102725780636127b2ca1461029d57806361fba37d146102c85780637e1055b6146103055780637fa8c158146103305780637ff9b5961461034757610177565b80622e131614610181578062f53e69146101ac578063129caa18146101d55780631aae3460146101ec5780632e659d93146102295780633ccfd60b1461025457610177565b366101775761017561056a565b005b61017f61056a565b005b34801561018d57600080fd5b50610196610aa0565b6040516101a39190611b2b565b60405180910390f35b3480156101b857600080fd5b506101d360048036038101906101ce9190611ba9565b610aa6565b005b3480156101e157600080fd5b506101ea610b78565b005b3480156101f857600080fd5b50610213600480360381019061020e9190611c14565b610ca9565b6040516102209190611b2b565b60405180910390f35b34801561023557600080fd5b5061023e610cc1565b60405161024b9190611cd1565b60405180910390f35b61025c610e67565b6040516102699190611d0e565b60405180910390f35b34801561027e57600080fd5b50610287611294565b6040516102949190611d0e565b60405180910390f35b3480156102a957600080fd5b506102b26114d6565b6040516102bf9190611b2b565b60405180910390f35b3480156102d457600080fd5b506102ef60048036038101906102ea9190611c14565b611579565b6040516102fc9190611b2b565b60405180910390f35b34801561031157600080fd5b5061031a61161e565b6040516103279190611b2b565b60405180910390f35b34801561033c57600080fd5b50610345611624565b005b34801561035357600080fd5b5061035c611774565b6040516103699190611b2b565b60405180910390f35b34801561037e57600080fd5b5061038761177a565b6040516103949190611b2b565b60405180910390f35b3480156103a957600080fd5b506103c460048036038101906103bf9190611c14565b611780565b005b3480156103d257600080fd5b506103db611851565b005b3480156103e957600080fd5b506103f2611981565b6040516103ff9190611b2b565b60405180910390f35b34801561041457600080fd5b5061041d611987565b60405161042a9190611d38565b60405180910390f35b34801561043f57600080fd5b506104486119ad565b6040516104559190611dca565b60405180910390f35b34801561046a57600080fd5b506104736119c0565b6040516104809190611b2b565b60405180910390f35b34801561049557600080fd5b5061049e6119c6565b005b6104a861056a565b6040516104b59190611d0e565b60405180910390f35b3480156104ca57600080fd5b506104d3611abc565b6040516104e09190611df4565b60405180910390f35b3480156104f557600080fd5b506104fe611ae0565b60405161050b9190611b2b565b60405180910390f35b34801561052057600080fd5b50610529611ae6565b6040516105369190611b2b565b60405180910390f35b34801561054b57600080fd5b50610554611aec565b6040516105619190611e6e565b60405180910390f35b6000600160038111156105805761057f611d53565b5b600c60009054906101000a900460ff1660038111156105a2576105a1611d53565b5b146105e2576040517f08c379a00000000000000000000000000000000000000000000000000000000081526004016105d990611ed5565b60405180910390fd5b60075434101580156105f657506008543411155b610635576040517f08c379a000000000000000000000000000000000000000000000000000000000815260040161062c90611f41565b60405180910390fd5b60085434600b60003373ffffffffffffffffffffffffffffffffffffffff1673ffffffffffffffffffffffffffffffffffffffff168152602001908152602001600020546106839190611f90565b11156106c4576040517f08c379a00000000000000000000000000000000000000000000000000000000081526004016106bb90612036565b60405180910390fd5b600260009054906101000a900473ffffffffffffffffffffffffffffffffffffffff1673ffffffffffffffffffffffffffffffffffffffff166318160ddd6040518163ffffffff1660e01b8152600401602060405180830381865afa158015610731573d6000803e3d6000fd5b505050506040513d601f19601f820116820180604052508101906107559190612082565b346006546107639190611f90565b11156107a4576040517f08c379a000000000000000000000000000000000000000000000000000000000815260040161079b906120fb565b60405180910390fd5b600a544211156107e9576040517f08c379a00000000000000000000000000000000000000000000000000000000081526004016107e09061218d565b60405180910390fd5b34600660008282546107fb9190611f90565b9250508190555034600b60003373ffffffffffffffffffffffffffffffffffffffff1673ffffffffffffffffffffffffffffffffffffffff16815260200190815260200160002060008282546108519190611f90565b925050819055506000600160009054906101000a900473ffffffffffffffffffffffffffffffffffffffff1673ffffffffffffffffffffffffffffffffffffffff16346040516108a0906121de565b60006040518083038185875af1925050503d80600081146108dd576040519150601f19603f3d011682016040523d82523d6000602084013e6108e2565b606091505b5050905080610926576040517f08c379a000000000000000000000000000000000000000000000000000000000815260040161091d9061223f565b60405180910390fd5b6000670de0b6b3a76400006003543461093f919061228e565b61094991906122bf565b90506000600260009054906101000a900473ffffffffffffffffffffffffffffffffffffffff1673ffffffffffffffffffffffffffffffffffffffff1663a9059cbb33846040518363ffffffff1660e01b81526004016109aa929190612319565b6020604051808303816000875af11580156109c9573d6000803e3d6000fd5b505050506040513d601f19601f820116820180604052508101906109ed919061236e565b905080610a2f576040517f08c379a0000000000000000000000000000000000000000000000000000000008152600401610a269061223f565b60405180910390fd5b3373ffffffffffffffffffffffffffffffffffffffff163073ffffffffffffffffffffffffffffffffffffffff167f2e206bbdd5787cd6d3e97144dec044f9f15dd77a257afd27fa70cad6f03feae33485604051610a8e92919061239b565b60405180910390a36001935050505090565b60085481565b60008054906101000a900473ffffffffffffffffffffffffffffffffffffffff1673ffffffffffffffffffffffffffffffffffffffff163373ffffffffffffffffffffffffffffffffffffffff1614610b34576040517f08c379a0000000000000000000000000000000000000000000000000000000008152600401610b2b90612410565b60405180910390fd5b80600160006101000a81548173ffffffffffffffffffffffffffffffffffffffff021916908373ffffffffffffffffffffffffffffffffffffffff16021790555050565b60008054906101000a900473ffffffffffffffffffffffffffffffffffffffff1673ffffffffffffffffffffffffffffffffffffffff163373ffffffffffffffffffffffffffffffffffffffff1614610c06576040517f08c379a0000000000000000000000000000000000000000000000000000000008152600401610bfd90612410565b60405180910390fd5b60016003811115610c1a57610c19611d53565b5b600c60009054906101000a900460ff166003811115610c3c57610c3b611d53565b5b14610c7c576040517f08c379a0000000000000000000000000000000000000000000000000000000008152600401610c739061247c565b60405180910390fd5b6003600c60006101000a81548160ff02191690836003811115610ca257610ca1611d53565b5b0217905550565b600b6020528060005260406000206000915090505481565b606060006003811115610cd757610cd6611d53565b5b600c60009054906101000a900460ff166003811115610cf957610cf8611d53565b5b03610d3b576040518060400160405280600b81526020017f4e6f7420537461727465640000000000000000000000000000000000000000008152509050610e64565b60016003811115610d4f57610d4e611d53565b5b600c60009054906101000a900460ff166003811115610d7157610d70611d53565b5b03610db3576040518060400160405280600781526020017f52756e6e696e67000000000000000000000000000000000000000000000000008152509050610e64565b60026003811115610dc757610dc6611d53565b5b600c60009054906101000a900460ff166003811115610de957610de8611d53565b5b03610e2b576040518060400160405280600381526020017f456e6400000000000000000000000000000000000000000000000000000000008152509050610e64565b6040518060400160405280600681526020017f48616c746564000000000000000000000000000000000000000000000000000081525090505b90565b600060026003811115610e7d57610e7c611d53565b5b600c60009054906101000a900460ff166003811115610e9f57610e9e611d53565b5b14610edf576040517f08c379a0000000000000000000000000000000000000000000000000000000008152600401610ed6906124e8565b60405180910390fd5b6005546006541015610f26576040517f08c379a0000000000000000000000000000000000000000000000000000000008152600401610f1d90612554565b60405180910390fd5b600a544211610f6a576040517f08c379a0000000000000000000000000000000000000000000000000000000008152600401610f61906125c0565b60405180910390fd5b6000600b60003373ffffffffffffffffffffffffffffffffffffffff1673ffffffffffffffffffffffffffffffffffffffff168152602001908152602001600020549050600b60003373ffffffffffffffffffffffffffffffffffffffff1673ffffffffffffffffffffffffffffffffffffffff1681526020019081526020016000205460066000828254610fff91906125e0565b925050819055506000600b60003373ffffffffffffffffffffffffffffffffffffffff1673ffffffffffffffffffffffffffffffffffffffff168152602001908152602001600020819055506000600160009054906101000a900473ffffffffffffffffffffffffffffffffffffffff1673ffffffffffffffffffffffffffffffffffffffff1682604051611093906121de565b60006040518083038185875af1925050503d80600081146110d0576040519150601f19603f3d011682016040523d82523d6000602084013e6110d5565b606091505b5050905080611119576040517f08c379a000000000000000000000000000000000000000000000000000000000815260040161111090612660565b60405180910390fd5b6000670de0b6b3a764000060035484611132919061228e565b61113c91906122bf565b90506000600260009054906101000a900473ffffffffffffffffffffffffffffffffffffffff1673ffffffffffffffffffffffffffffffffffffffff1663a9059cbb30846040518363ffffffff1660e01b815260040161119d929190612319565b6020604051808303816000875af11580156111bc573d6000803e3d6000fd5b505050506040513d601f19601f820116820180604052508101906111e0919061236e565b905080611222576040517f08c379a000000000000000000000000000000000000000000000000000000000815260040161121990612660565b60405180910390fd5b3073ffffffffffffffffffffffffffffffffffffffff163373ffffffffffffffffffffffffffffffffffffffff167ff341246adaac6f497bc2a656f546ab9e182111d630394f0c57c710a59a2cb567868560405161128192919061239b565b60405180910390a3600194505050505090565b6000600260038111156112aa576112a9611d53565b5b600c60009054906101000a900460ff1660038111156112cc576112cb611d53565b5b1461130c576040517f08c379a0000000000000000000000000000000000000000000000000000000008152600401611303906126cc565b60405180910390fd5b6000600260009054906101000a900473ffffffffffffffffffffffffffffffffffffffff1673ffffffffffffffffffffffffffffffffffffffff166370a08231306040518263ffffffff1660e01b81526004016113699190611df4565b602060405180830381865afa158015611386573d6000803e3d6000fd5b505050506040513d601f19601f820116820180604052508101906113aa9190612082565b90506000600260009054906101000a900473ffffffffffffffffffffffffffffffffffffffff1673ffffffffffffffffffffffffffffffffffffffff1663a9059cbb6000846040518363ffffffff1660e01b815260040161140c929190612319565b6020604051808303816000875af115801561142b573d6000803e3d6000fd5b505050506040513d601f19601f8201168201806040525081019061144f919061236e565b905080611491576040517f08c379a000000000000000000000000000000000000000000000000000000000815260040161148890612738565b60405180910390fd5b7ffe9e0b0c1e3e9216717d5f66d10bc310b12c366417e150b4b1af9fb9620bca91600083426040516114c593929190612758565b60405180910390a160019250505090565b6000600260009054906101000a900473ffffffffffffffffffffffffffffffffffffffff1673ffffffffffffffffffffffffffffffffffffffff166370a08231306040518263ffffffff1660e01b81526004016115339190611df4565b602060405180830381865afa158015611550573d6000803e3d6000fd5b505050506040513d601f19601f820116820180604052508101906115749190612082565b905090565b6000600260009054906101000a900473ffffffffffffffffffffffffffffffffffffffff1673ffffffffffffffffffffffffffffffffffffffff166370a08231836040518263ffffffff1660e01b81526004016115d69190611df4565b602060405180830381865afa1580156115f3573d6000803e3d6000fd5b505050506040513d601f19601f820116820180604052508101906116179190612082565b9050919050565b600a5481565b60008054906101000a900473ffffffffffffffffffffffffffffffffffffffff1673ffffffffffffffffffffffffffffffffffffffff163373ffffffffffffffffffffffffffffffffffffffff16146116b2576040517f08c379a00000000000000000000000000000000000000000000000000000000081526004016116a990612410565b60405180910390fd5b600060038111156116c6576116c5611d53565b5b600c60009054906101000a900460ff1660038111156116e8576116e7611d53565b5b14611728576040517f08c379a000000000000000000000000000000000000000000000000000000000815260040161171f906127db565b60405180910390fd5b426009819055506301e133806009546117419190611f90565b600a819055506001600c60006101000a81548160ff0219169083600381111561176d5761176c611d53565b5b0217905550565b60035481565b60075481565b60008054906101000a900473ffffffffffffffffffffffffffffffffffffffff1673ffffffffffffffffffffffffffffffffffffffff163373ffffffffffffffffffffffffffffffffffffffff161461180e576040517f08c379a000000000000000000000000000000000000000000000000000000000815260040161180590612410565b60405180910390fd5b806000806101000a81548173ffffffffffffffffffffffffffffffffffffffff021916908373ffffffffffffffffffffffffffffffffffffffff16021790555050565b60008054906101000a900473ffffffffffffffffffffffffffffffffffffffff1673ffffffffffffffffffffffffffffffffffffffff163373ffffffffffffffffffffffffffffffffffffffff16146118df576040517f08c379a00000000000000000000000000000000000000000000000000000000081526004016118d690612410565b60405180910390fd5b6003808111156118f2576118f1611d53565b5b600c60009054906101000a900460ff16600381111561191457611913611d53565b5b14611954576040517f08c379a000000000000000000000000000000000000000000000000000000000815260040161194b90612847565b60405180910390fd5b6001600c60006101000a81548160ff0219169083600381111561197a57611979611d53565b5b0217905550565b60095481565b600160009054906101000a900473ffffffffffffffffffffffffffffffffffffffff1681565b600c60009054906101000a900460ff1681565b60065481565b600160038111156119da576119d9611d53565b5b600c60009054906101000a900460ff1660038111156119fc576119fb611d53565b5b14611a3c576040517f08c379a0000000000000000000000000000000000000000000000000000000008152600401611a33906128b3565b60405180910390fd5b600a54421180611a50575060045460065410155b611a8f576040517f08c379a0000000000000000000000000000000000000000000000000000000008152600401611a8690612945565b60405180910390fd5b6002600c60006101000a81548160ff02191690836003811115611ab557611ab4611d53565b5b0217905550565b60008054906101000a900473ffffffffffffffffffffffffffffffffffffffff1681565b60055481565b60045481565b600260009054906101000a900473ffffffffffffffffffffffffffffffffffffffff1681565b6000819050919050565b611b2581611b12565b82525050565b6000602082019050611b406000830184611b1c565b92915050565b600080fd5b600073ffffffffffffffffffffffffffffffffffffffff82169050919050565b6000611b7682611b4b565b9050919050565b611b8681611b6b565b8114611b9157600080fd5b50565b600081359050611ba381611b7d565b92915050565b600060208284031215611bbf57611bbe611b46565b5b6000611bcd84828501611b94565b91505092915050565b6000611be182611b4b565b9050919050565b611bf181611bd6565b8114611bfc57600080fd5b50565b600081359050611c0e81611be8565b92915050565b600060208284031215611c2a57611c29611b46565b5b6000611c3884828501611bff565b91505092915050565b600081519050919050565b600082825260208201905092915050565b60005b83811015611c7b578082015181840152602081019050611c60565b60008484015250505050565b6000601f19601f8301169050919050565b6000611ca382611c41565b611cad8185611c4c565b9350611cbd818560208601611c5d565b611cc681611c87565b840191505092915050565b60006020820190508181036000830152611ceb8184611c98565b905092915050565b60008115159050919050565b611d0881611cf3565b82525050565b6000602082019050611d236000830184611cff565b92915050565b611d3281611b6b565b82525050565b6000602082019050611d4d6000830184611d29565b92915050565b7f4e487b7100000000000000000000000000000000000000000000000000000000600052602160045260246000fd5b60048110611d9357611d92611d53565b5b50565b6000819050611da482611d82565b919050565b6000611db482611d96565b9050919050565b611dc481611da9565b82525050565b6000602082019050611ddf6000830184611dbb565b92915050565b611dee81611bd6565b82525050565b6000602082019050611e096000830184611de5565b92915050565b6000819050919050565b6000611e34611e2f611e2a84611b4b565b611e0f565b611b4b565b9050919050565b6000611e4682611e19565b9050919050565b6000611e5882611e3b565b9050919050565b611e6881611e4d565b82525050565b6000602082019050611e836000830184611e5f565b92915050565b7f49434f2069736e27742072756e6e696e67000000000000000000000000000000600082015250565b6000611ebf601183611c4c565b9150611eca82611e89565b602082019050919050565b60006020820190508181036000830152611eee81611eb2565b9050919050565b7f436865636b204d696e20616e64204d617820496e766573746d656e7400000000600082015250565b6000611f2b601c83611c4c565b9150611f3682611ef5565b602082019050919050565b60006020820190508181036000830152611f5a81611f1e565b9050919050565b7f4e487b7100000000000000000000000000000000000000000000000000000000600052601160045260246000fd5b6000611f9b82611b12565b9150611fa683611b12565b9250828201905080821115611fbe57611fbd611f61565b5b92915050565b7f496e766573746f722072656163686564206d6178696d756d20496e766573746d60008201527f656e7420416d6f756e7400000000000000000000000000000000000000000000602082015250565b6000612020602a83611c4c565b915061202b82611fc4565b604082019050919050565b6000602082019050818103600083015261204f81612013565b9050919050565b61205f81611b12565b811461206a57600080fd5b50565b60008151905061207c81612056565b92915050565b60006020828403121561209857612097611b46565b5b60006120a68482850161206d565b91505092915050565b7f53656e642077697468696e20746f74616c537570706c792072616e6765000000600082015250565b60006120e5601d83611c4c565b91506120f0826120af565b602082019050919050565b60006020820190508181036000830152612114816120d8565b9050919050565b7f49434f20616c72656164792052656163686564204d6178696d756d2074696d6560008201527f206c696d69740000000000000000000000000000000000000000000000000000602082015250565b6000612177602683611c4c565b91506121828261211b565b604082019050919050565b600060208201905081810360008301526121a68161216a565b9050919050565b600081905092915050565b50565b60006121c86000836121ad565b91506121d3826121b8565b600082019050919050565b60006121e9826121bb565b9150819050919050565b7f4661696c656420746f20496e7665737400000000000000000000000000000000600082015250565b6000612229601083611c4c565b9150612234826121f3565b602082019050919050565b600060208201905081810360008301526122588161221c565b9050919050565b7f4e487b7100000000000000000000000000000000000000000000000000000000600052601260045260246000fd5b600061229982611b12565b91506122a483611b12565b9250826122b4576122b361225f565b5b828204905092915050565b60006122ca82611b12565b91506122d583611b12565b9250817fffffffffffffffffffffffffffffffffffffffffffffffffffffffffffffffff048311821515161561230e5761230d611f61565b5b828202905092915050565b600060408201905061232e6000830185611de5565b61233b6020830184611b1c565b9392505050565b61234b81611cf3565b811461235657600080fd5b50565b60008151905061236881612342565b92915050565b60006020828403121561238457612383611b46565b5b600061239284828501612359565b91505092915050565b60006040820190506123b06000830185611b1c565b6123bd6020830184611b1c565b9392505050565b7f41646d696e204f6e6c792066756e6374696f6e00000000000000000000000000600082015250565b60006123fa601383611c4c565b9150612405826123c4565b602082019050919050565b60006020820190508181036000830152612429816123ed565b9050919050565b7f49434f2069736e27742072756e6e696e67207965740000000000000000000000600082015250565b6000612466601583611c4c565b915061247182612430565b602082019050919050565b6000602082019050818103600083015261249581612459565b9050919050565b7f49434f2069736e277420656e6400000000000000000000000000000000000000600082015250565b60006124d2600d83611c4c565b91506124dd8261249c565b602082019050919050565b60006020820190508181036000830152612501816124c5565b9050919050565b7f436865636b207261697365416d6f756e74000000000000000000000000000000600082015250565b600061253e601183611c4c565b915061254982612508565b602082019050919050565b6000602082019050818103600083015261256d81612531565b9050919050565b7f49434f2069732072756e6e696e67000000000000000000000000000000000000600082015250565b60006125aa600e83611c4c565b91506125b582612574565b602082019050919050565b600060208201905081810360008301526125d98161259d565b9050919050565b60006125eb82611b12565b91506125f683611b12565b925082820390508181111561260e5761260d611f61565b5b92915050565b7f4661696c656420746f2057697468647261770000000000000000000000000000600082015250565b600061264a601283611c4c565b915061265582612614565b602082019050919050565b600060208201905081810360008301526126798161263d565b9050919050565b7f49434f2069736e2774206f766572207965740000000000000000000000000000600082015250565b60006126b6601283611c4c565b91506126c182612680565b602082019050919050565b600060208201905081810360008301526126e5816126a9565b9050919050565b7f4661696c656420746f206275726e2072656d61696e696e6720746f6b656e7300600082015250565b6000612722601f83611c4c565b915061272d826126ec565b602082019050919050565b6000602082019050818103600083015261275181612715565b9050919050565b600060608201905061276d6000830186611de5565b61277a6020830185611b1c565b6127876040830184611b1c565b949350505050565b7f49434f2069736e277420696e206265666f726520737461746500000000000000600082015250565b60006127c5601983611c4c565b91506127d08261278f565b602082019050919050565b600060208201905081810360008301526127f4816127b8565b9050919050565b7f49434f2053746174652069736e27742068616c74656420796574000000000000600082015250565b6000612831601a83611c4c565b915061283c826127fb565b602082019050919050565b6000602082019050818103600083015261286081612824565b9050919050565b7f49434f2053686f756c6420626520696e2052756e6e696e672053746174650000600082015250565b600061289d601e83611c4c565b91506128a882612867565b602082019050919050565b600060208201905081810360008301526128cc81612890565b9050919050565b7f49434f2048617264636170206f722074696d656c696d6974206e6f742072656160008201527f6368656400000000000000000000000000000000000000000000000000000000602082015250565b600061292f602483611c4c565b915061293a826128d3565b604082019050919050565b6000602082019050818103600083015261295e81612922565b905091905056fea2646970667358221220f270a7fa4861508c949cc6acc2faf5e9bf36efe384c39b5dab9fbd3c3bb26f0764736f6c63430008100033",
  "linkReferences": {},
  "deployedLinkReferences": {}
}